{
  "contractName": "Ballot",
  "abi": [
    {
      "inputs": [
        {
          "internalType": "string[]",
          "name": "_candidateNames",
          "type": "string[]"
        },
        {
          "internalType": "string",
          "name": "_proposalName",
          "type": "string"
        }
      ],
      "stateMutability": "nonpayable",
      "type": "constructor"
    },
    {
      "inputs": [
        {
          "internalType": "uint256",
          "name": "",
          "type": "uint256"
        }
      ],
      "name": "candidates",
      "outputs": [
        {
          "internalType": "uint256",
          "name": "candidateId",
          "type": "uint256"
        },
        {
          "internalType": "string",
          "name": "name",
          "type": "string"
        },
        {
          "internalType": "uint256",
          "name": "voteTally",
          "type": "uint256"
        }
      ],
      "stateMutability": "view",
      "type": "function"
    },
    {
      "inputs": [],
      "name": "candidatesCount",
      "outputs": [
        {
          "internalType": "uint256",
          "name": "",
          "type": "uint256"
        }
      ],
      "stateMutability": "view",
      "type": "function"
    },
    {
      "inputs": [],
      "name": "chairperson",
      "outputs": [
        {
          "internalType": "address",
          "name": "",
          "type": "address"
        }
      ],
      "stateMutability": "view",
      "type": "function"
    },
    {
      "inputs": [],
      "name": "length",
      "outputs": [
        {
          "internalType": "uint256",
          "name": "",
          "type": "uint256"
        }
      ],
      "stateMutability": "view",
      "type": "function"
    },
    {
      "inputs": [],
      "name": "proposalName",
      "outputs": [
        {
          "internalType": "string",
          "name": "",
          "type": "string"
        }
      ],
      "stateMutability": "view",
      "type": "function"
    },
    {
      "inputs": [
        {
          "internalType": "address",
          "name": "",
          "type": "address"
        }
      ],
      "name": "voters",
      "outputs": [
        {
          "internalType": "bool",
          "name": "",
          "type": "bool"
        }
      ],
      "stateMutability": "view",
      "type": "function"
    },
    {
      "inputs": [
        {
          "internalType": "string",
          "name": "_name",
          "type": "string"
        }
      ],
      "name": "addCandidate",
      "outputs": [],
      "stateMutability": "nonpayable",
      "type": "function"
    },
    {
      "inputs": [],
      "name": "getCandidates",
      "outputs": [
        {
          "internalType": "string[]",
          "name": "",
          "type": "string[]"
        },
        {
          "internalType": "uint256[]",
          "name": "",
          "type": "uint256[]"
        }
      ],
      "stateMutability": "view",
      "type": "function"
    },
    {
      "inputs": [
        {
          "internalType": "uint256",
          "name": "_candidateId",
          "type": "uint256"
        }
      ],
      "name": "vote",
      "outputs": [
        {
          "internalType": "uint256",
          "name": "",
          "type": "uint256"
        }
      ],
      "stateMutability": "nonpayable",
      "type": "function"
    },
    {
      "inputs": [],
      "name": "getCandidatesCount",
      "outputs": [
        {
          "internalType": "uint256",
          "name": "",
          "type": "uint256"
        }
      ],
      "stateMutability": "view",
      "type": "function"
    },
    {
      "inputs": [],
      "name": "getLength",
      "outputs": [
        {
          "internalType": "uint256",
          "name": "",
          "type": "uint256"
        }
      ],
      "stateMutability": "view",
      "type": "function"
    },
    {
      "inputs": [],
      "name": "getProposalName",
      "outputs": [
        {
          "internalType": "string",
          "name": "",
          "type": "string"
        }
      ],
      "stateMutability": "view",
      "type": "function"
    },
    {
      "inputs": [
        {
          "internalType": "uint256",
          "name": "_candidateId",
          "type": "uint256"
        }
      ],
      "name": "readVoteTally",
      "outputs": [
        {
          "internalType": "uint256",
          "name": "",
          "type": "uint256"
        }
      ],
      "stateMutability": "view",
      "type": "function"
    }
  ],
  "bytecode": "0x60806040523480156200001157600080fd5b506040516200163b3803806200163b8339818101604052810190620000379190620004c2565b33600560006101000a81548173ffffffffffffffffffffffffffffffffffffffff021916908373ffffffffffffffffffffffffffffffffffffffff16021790555080600490805190602001906200009092919062000179565b50815160038190555060005b8251811015620000ea57620000d4838281518110620000c057620000bf62000547565b5b6020026020010151620000f360201b60201c565b8080620000e190620005af565b9150506200009c565b50505062000662565b6040518060600160405280600254815260200182815260200160008152506001600060025481526020019081526020016000206000820151816000015560208201518160010190805190602001906200014e92919062000179565b5060408201518160020155905050600260008154809291906200017190620005af565b919050555050565b82805462000187906200062c565b90600052602060002090601f016020900481019282620001ab5760008555620001f7565b82601f10620001c657805160ff1916838001178555620001f7565b82800160010185558215620001f7579182015b82811115620001f6578251825591602001919060010190620001d9565b5b5090506200020691906200020a565b5090565b5b80821115620002255760008160009055506001016200020b565b5090565b6000604051905090565b600080fd5b600080fd5b600080fd5b6000601f19601f8301169050919050565b7f4e487b7100000000000000000000000000000000000000000000000000000000600052604160045260246000fd5b6200028d8262000242565b810181811067ffffffffffffffff82111715620002af57620002ae62000253565b5b80604052505050565b6000620002c462000229565b9050620002d2828262000282565b919050565b600067ffffffffffffffff821115620002f557620002f462000253565b5b602082029050602081019050919050565b600080fd5b600080fd5b600067ffffffffffffffff8211156200032e576200032d62000253565b5b620003398262000242565b9050602081019050919050565b60005b838110156200036657808201518184015260208101905062000349565b8381111562000376576000848401525b50505050565b6000620003936200038d8462000310565b620002b8565b905082815260208101848484011115620003b257620003b16200030b565b5b620003bf84828562000346565b509392505050565b600082601f830112620003df57620003de6200023d565b5b8151620003f18482602086016200037c565b91505092915050565b6000620004116200040b84620002d7565b620002b8565b9050808382526020820190506020840283018581111562000437576200043662000306565b5b835b818110156200048557805167ffffffffffffffff81111562000460576200045f6200023d565b5b8086016200046f8982620003c7565b8552602085019450505060208101905062000439565b5050509392505050565b600082601f830112620004a757620004a66200023d565b5b8151620004b9848260208601620003fa565b91505092915050565b60008060408385031215620004dc57620004db62000233565b5b600083015167ffffffffffffffff811115620004fd57620004fc62000238565b5b6200050b858286016200048f565b925050602083015167ffffffffffffffff8111156200052f576200052e62000238565b5b6200053d85828601620003c7565b9150509250929050565b7f4e487b7100000000000000000000000000000000000000000000000000000000600052603260045260246000fd5b7f4e487b7100000000000000000000000000000000000000000000000000000000600052601160045260246000fd5b6000819050919050565b6000620005bc82620005a5565b91507fffffffffffffffffffffffffffffffffffffffffffffffffffffffffffffffff821415620005f257620005f162000576565b5b600182019050919050565b7f4e487b7100000000000000000000000000000000000000000000000000000000600052602260045260246000fd5b600060028204905060018216806200064557607f821691505b602082108114156200065c576200065b620005fd565b5b50919050565b610fc980620006726000396000f3fe608060405234801561001057600080fd5b50600436106100cf5760003560e01c8063462e91ec1161008c578063a3ec138d11610066578063a3ec138d14610207578063bb9aa28f14610237578063be1c766b14610255578063cf3edfa114610273576100cf565b8063462e91ec146101af57806362b25fc6146101cb5780636a2275db146101e9576100cf565b80630121b93f146100d457806306a49fce146101045780631f7b6d32146101235780632d35a8a2146101415780632e4176cf1461015f5780633477ee2e1461017d575b600080fd5b6100ee60048036038101906100e991906108d1565b6102a3565b6040516100fb919061090d565b60405180910390f35b61010c610344565b60405161011a929190610b41565b60405180910390f35b61012b61050a565b604051610138919061090d565b60405180910390f35b610149610510565b604051610156919061090d565b60405180910390f35b610167610516565b6040516101749190610bb9565b60405180910390f35b610197600480360381019061019291906108d1565b61053c565b6040516101a693929190610c1e565b60405180910390f35b6101c960048036038101906101c49190610d91565b6105ee565b005b6101d3610670565b6040516101e09190610dda565b60405180910390f35b6101f1610702565b6040516101fe9190610dda565b60405180910390f35b610221600480360381019061021c9190610e28565b610790565b60405161022e9190610e70565b60405180910390f35b61023f6107b0565b60405161024c919061090d565b60405180910390f35b61025d6107ba565b60405161026a919061090d565b60405180910390f35b61028d600480360381019061028891906108d1565b6107c4565b60405161029a919061090d565b60405180910390f35b600060016000803373ffffffffffffffffffffffffffffffffffffffff1673ffffffffffffffffffffffffffffffffffffffff16815260200190815260200160002060006101000a81548160ff021916908315150217905550600160008381526020019081526020016000206002016000815461031f90610eba565b9190508190555060016000838152602001908152602001600020600201549050919050565b606080600060025467ffffffffffffffff81111561036557610364610c66565b5b60405190808252806020026020018201604052801561039857816020015b60608152602001906001900390816103835790505b509050600060025467ffffffffffffffff8111156103b9576103b8610c66565b5b6040519080825280602002602001820160405280156103e75781602001602082028036833780820191505090505b50905060005b6002548110156104fd5760016000828152602001908152602001600020600101805461041890610f32565b80601f016020809104026020016040519081016040528092919081815260200182805461044490610f32565b80156104915780601f1061046657610100808354040283529160200191610491565b820191906000526020600020905b81548152906001019060200180831161047457829003601f168201915b50505050508382815181106104a9576104a8610f64565b5b602002602001018190525060016000828152602001908152602001600020600201548282815181106104de576104dd610f64565b5b60200260200101818152505080806104f590610eba565b9150506103ed565b5081819350935050509091565b60035481565b60025481565b600560009054906101000a900473ffffffffffffffffffffffffffffffffffffffff1681565b600160205280600052604060002060009150905080600001549080600101805461056590610f32565b80601f016020809104026020016040519081016040528092919081815260200182805461059190610f32565b80156105de5780601f106105b3576101008083540402835291602001916105de565b820191906000526020600020905b8154815290600101906020018083116105c157829003601f168201915b5050505050908060020154905083565b6040518060600160405280600254815260200182815260200160008152506001600060025481526020019081526020016000206000820151816000015560208201518160010190805190602001906106479291906107e4565b50604082015181600201559050506002600081548092919061066890610eba565b919050555050565b60606004805461067f90610f32565b80601f01602080910402602001604051908101604052809291908181526020018280546106ab90610f32565b80156106f85780601f106106cd576101008083540402835291602001916106f8565b820191906000526020600020905b8154815290600101906020018083116106db57829003601f168201915b5050505050905090565b6004805461070f90610f32565b80601f016020809104026020016040519081016040528092919081815260200182805461073b90610f32565b80156107885780601f1061075d57610100808354040283529160200191610788565b820191906000526020600020905b81548152906001019060200180831161076b57829003601f168201915b505050505081565b60006020528060005260406000206000915054906101000a900460ff1681565b6000600254905090565b6000600354905090565b600060016000838152602001908152602001600020600201549050919050565b8280546107f090610f32565b90600052602060002090601f0160209004810192826108125760008555610859565b82601f1061082b57805160ff1916838001178555610859565b82800160010185558215610859579182015b8281111561085857825182559160200191906001019061083d565b5b509050610866919061086a565b5090565b5b8082111561088357600081600090555060010161086b565b5090565b6000604051905090565b600080fd5b600080fd5b6000819050919050565b6108ae8161089b565b81146108b957600080fd5b50565b6000813590506108cb816108a5565b92915050565b6000602082840312156108e7576108e6610891565b5b60006108f5848285016108bc565b91505092915050565b6109078161089b565b82525050565b600060208201905061092260008301846108fe565b92915050565b600081519050919050565b600082825260208201905092915050565b6000819050602082019050919050565b600081519050919050565b600082825260208201905092915050565b60005b8381101561098e578082015181840152602081019050610973565b8381111561099d576000848401525b50505050565b6000601f19601f8301169050919050565b60006109bf82610954565b6109c9818561095f565b93506109d9818560208601610970565b6109e2816109a3565b840191505092915050565b60006109f983836109b4565b905092915050565b6000602082019050919050565b6000610a1982610928565b610a238185610933565b935083602082028501610a3585610944565b8060005b85811015610a715784840389528151610a5285826109ed565b9450610a5d83610a01565b925060208a01995050600181019050610a39565b50829750879550505050505092915050565b600081519050919050565b600082825260208201905092915050565b6000819050602082019050919050565b610ab88161089b565b82525050565b6000610aca8383610aaf565b60208301905092915050565b6000602082019050919050565b6000610aee82610a83565b610af88185610a8e565b9350610b0383610a9f565b8060005b83811015610b34578151610b1b8882610abe565b9750610b2683610ad6565b925050600181019050610b07565b5085935050505092915050565b60006040820190508181036000830152610b5b8185610a0e565b90508181036020830152610b6f8184610ae3565b90509392505050565b600073ffffffffffffffffffffffffffffffffffffffff82169050919050565b6000610ba382610b78565b9050919050565b610bb381610b98565b82525050565b6000602082019050610bce6000830184610baa565b92915050565b600082825260208201905092915050565b6000610bf082610954565b610bfa8185610bd4565b9350610c0a818560208601610970565b610c13816109a3565b840191505092915050565b6000606082019050610c3360008301866108fe565b8181036020830152610c458185610be5565b9050610c5460408301846108fe565b949350505050565b600080fd5b600080fd5b7f4e487b7100000000000000000000000000000000000000000000000000000000600052604160045260246000fd5b610c9e826109a3565b810181811067ffffffffffffffff82111715610cbd57610cbc610c66565b5b80604052505050565b6000610cd0610887565b9050610cdc8282610c95565b919050565b600067ffffffffffffffff821115610cfc57610cfb610c66565b5b610d05826109a3565b9050602081019050919050565b82818337600083830152505050565b6000610d34610d2f84610ce1565b610cc6565b905082815260208101848484011115610d5057610d4f610c61565b5b610d5b848285610d12565b509392505050565b600082601f830112610d7857610d77610c5c565b5b8135610d88848260208601610d21565b91505092915050565b600060208284031215610da757610da6610891565b5b600082013567ffffffffffffffff811115610dc557610dc4610896565b5b610dd184828501610d63565b91505092915050565b60006020820190508181036000830152610df48184610be5565b905092915050565b610e0581610b98565b8114610e1057600080fd5b50565b600081359050610e2281610dfc565b92915050565b600060208284031215610e3e57610e3d610891565b5b6000610e4c84828501610e13565b91505092915050565b60008115159050919050565b610e6a81610e55565b82525050565b6000602082019050610e856000830184610e61565b92915050565b7f4e487b7100000000000000000000000000000000000000000000000000000000600052601160045260246000fd5b6000610ec58261089b565b91507fffffffffffffffffffffffffffffffffffffffffffffffffffffffffffffffff821415610ef857610ef7610e8b565b5b600182019050919050565b7f4e487b7100000000000000000000000000000000000000000000000000000000600052602260045260246000fd5b60006002820490506001821680610f4a57607f821691505b60208210811415610f5e57610f5d610f03565b5b50919050565b7f4e487b7100000000000000000000000000000000000000000000000000000000600052603260045260246000fdfea2646970667358221220b26999049b123208e333e4df5d315a00a069d66082da6a5e6e079f459489f99464736f6c634300080a0033",
  "immutableReferences": {},
  "source": "// SPDX-License-Identifier: MIT\npragma solidity >=0.4.22 <0.9.0;\n\ncontract Ballot {\n    struct Voter {\n        uint256 voterId;\n        bool voted;\n    }\n\n    struct Candidate {\n        uint256 candidateId;\n        string name;\n        uint256 voteTally;\n    }\n\n    mapping(address => bool) public voters;\n    mapping(uint256 => Candidate) public candidates;\n\n    uint256 public candidatesCount;\n\n    uint256 public length;\n\n    string public proposalName;\n\n    address public chairperson;\n\n    constructor(string[] memory _candidateNames, string memory _proposalName) {\n        chairperson = msg.sender;\n        proposalName = _proposalName;\n        length = _candidateNames.length;\n\n        for (uint256 i = 0; i < _candidateNames.length; i++) {\n            addCandidate(_candidateNames[i]);\n        }\n    }\n\n    function addCandidate(string memory _name) public {\n        candidates[candidatesCount] = Candidate(candidatesCount, _name, 0);\n        candidatesCount++;\n    }\n\n    function getCandidates()\n        external\n        view\n        returns (string[] memory, uint256[] memory)\n    {\n        string[] memory names = new string[](candidatesCount);\n        uint256[] memory voteCounts = new uint256[](candidatesCount);\n        for (uint256 i = 0; i < candidatesCount; i++) {\n            names[i] = candidates[i].name;\n            voteCounts[i] = candidates[i].voteTally;\n        }\n        return (names, voteCounts);\n    }\n\n    function vote(uint256 _candidateId) public returns (uint256) {\n        voters[msg.sender] = true;\n        ++candidates[_candidateId].voteTally;\n        //candidates[_candidateId].voteTally++;\n        return candidates[_candidateId].voteTally;\n    }\n\n    function getCandidatesCount() public view returns (uint256) {\n        return candidatesCount;\n    }\n\n    function getLength() public view returns (uint256) {\n        return length;\n    }\n\n    function getProposalName() public view returns (string memory) {\n        return proposalName;\n    }\n\n    function readVoteTally(uint256 _candidateId)\n        external\n        view\n        returns (uint256)\n    {\n        return candidates[_candidateId].voteTally;\n    }\n}\n",
  "sourcePath": "/Users/josiahmayanja/fyp_dapp/contracts/Ballot.sol",
  "compiler": {
    "name": "solc",
    "version": "0.8.10+commit.fc410830.Emscripten.clang"
  },
  "schemaVersion": "3.4.4",
  "updatedAt": "2022-01-20T22:47:16.966Z",
  "devdoc": {
    "kind": "dev",
    "methods": {},
    "version": 1
  },
  "userdoc": {
    "kind": "user",
    "methods": {},
    "version": 1
  }
}