{
  "contractName": "Ballot",
  "abi": [
    {
      "inputs": [
        {
          "internalType": "string[]",
          "name": "_candidateNames",
          "type": "string[]"
        },
        {
          "internalType": "string",
          "name": "_proposalName",
          "type": "string"
        }
      ],
      "stateMutability": "nonpayable",
      "type": "constructor"
    },
    {
      "inputs": [
        {
          "internalType": "uint256",
          "name": "",
          "type": "uint256"
        }
      ],
      "name": "candidates",
      "outputs": [
        {
          "internalType": "uint256",
          "name": "candidateId",
          "type": "uint256"
        },
        {
          "internalType": "string",
          "name": "name",
          "type": "string"
        },
        {
          "internalType": "uint256",
          "name": "voteTally",
          "type": "uint256"
        }
      ],
      "stateMutability": "view",
      "type": "function"
    },
    {
      "inputs": [],
      "name": "candidatesCount",
      "outputs": [
        {
          "internalType": "uint256",
          "name": "",
          "type": "uint256"
        }
      ],
      "stateMutability": "view",
      "type": "function"
    },
    {
      "inputs": [],
      "name": "chairperson",
      "outputs": [
        {
          "internalType": "address",
          "name": "",
          "type": "address"
        }
      ],
      "stateMutability": "view",
      "type": "function"
    },
    {
      "inputs": [],
      "name": "length",
      "outputs": [
        {
          "internalType": "uint256",
          "name": "",
          "type": "uint256"
        }
      ],
      "stateMutability": "view",
      "type": "function"
    },
    {
      "inputs": [],
      "name": "proposalName",
      "outputs": [
        {
          "internalType": "string",
          "name": "",
          "type": "string"
        }
      ],
      "stateMutability": "view",
      "type": "function"
    },
    {
      "inputs": [
        {
          "internalType": "address",
          "name": "",
          "type": "address"
        }
      ],
      "name": "voters",
      "outputs": [
        {
          "internalType": "bool",
          "name": "",
          "type": "bool"
        }
      ],
      "stateMutability": "view",
      "type": "function"
    },
    {
      "inputs": [
        {
          "internalType": "string",
          "name": "_name",
          "type": "string"
        }
      ],
      "name": "addCandidate",
      "outputs": [],
      "stateMutability": "nonpayable",
      "type": "function"
    },
    {
      "inputs": [],
      "name": "getCandidates",
      "outputs": [
        {
          "internalType": "string[]",
          "name": "",
          "type": "string[]"
        },
        {
          "internalType": "uint256[]",
          "name": "",
          "type": "uint256[]"
        }
      ],
      "stateMutability": "view",
      "type": "function"
    },
    {
      "inputs": [
        {
          "internalType": "uint256",
          "name": "_candidateId",
          "type": "uint256"
        }
      ],
      "name": "vote",
      "outputs": [],
      "stateMutability": "nonpayable",
      "type": "function"
    },
    {
      "inputs": [],
      "name": "getCandidatesCount",
      "outputs": [
        {
          "internalType": "uint256",
          "name": "",
          "type": "uint256"
        }
      ],
      "stateMutability": "view",
      "type": "function"
    },
    {
      "inputs": [],
      "name": "getLength",
      "outputs": [
        {
          "internalType": "uint256",
          "name": "",
          "type": "uint256"
        }
      ],
      "stateMutability": "view",
      "type": "function"
    },
    {
      "inputs": [],
      "name": "getProposalName",
      "outputs": [
        {
          "internalType": "string",
          "name": "",
          "type": "string"
        }
      ],
      "stateMutability": "view",
      "type": "function"
    },
    {
      "inputs": [
        {
          "internalType": "uint256",
          "name": "_candidateId",
          "type": "uint256"
        }
      ],
      "name": "readVoteTally",
      "outputs": [
        {
          "internalType": "uint256",
          "name": "",
          "type": "uint256"
        }
      ],
      "stateMutability": "view",
      "type": "function"
    }
  ],
  "bytecode": "0x60806040523480156200001157600080fd5b506040516200160c3803806200160c8339818101604052810190620000379190620004c2565b33600560006101000a81548173ffffffffffffffffffffffffffffffffffffffff021916908373ffffffffffffffffffffffffffffffffffffffff16021790555080600490805190602001906200009092919062000179565b50815160038190555060005b8251811015620000ea57620000d4838281518110620000c057620000bf62000547565b5b6020026020010151620000f360201b60201c565b8080620000e190620005af565b9150506200009c565b50505062000662565b6040518060600160405280600254815260200182815260200160008152506001600060025481526020019081526020016000206000820151816000015560208201518160010190805190602001906200014e92919062000179565b5060408201518160020155905050600260008154809291906200017190620005af565b919050555050565b82805462000187906200062c565b90600052602060002090601f016020900481019282620001ab5760008555620001f7565b82601f10620001c657805160ff1916838001178555620001f7565b82800160010185558215620001f7579182015b82811115620001f6578251825591602001919060010190620001d9565b5b5090506200020691906200020a565b5090565b5b80821115620002255760008160009055506001016200020b565b5090565b6000604051905090565b600080fd5b600080fd5b600080fd5b6000601f19601f8301169050919050565b7f4e487b7100000000000000000000000000000000000000000000000000000000600052604160045260246000fd5b6200028d8262000242565b810181811067ffffffffffffffff82111715620002af57620002ae62000253565b5b80604052505050565b6000620002c462000229565b9050620002d2828262000282565b919050565b600067ffffffffffffffff821115620002f557620002f462000253565b5b602082029050602081019050919050565b600080fd5b600080fd5b600067ffffffffffffffff8211156200032e576200032d62000253565b5b620003398262000242565b9050602081019050919050565b60005b838110156200036657808201518184015260208101905062000349565b8381111562000376576000848401525b50505050565b6000620003936200038d8462000310565b620002b8565b905082815260208101848484011115620003b257620003b16200030b565b5b620003bf84828562000346565b509392505050565b600082601f830112620003df57620003de6200023d565b5b8151620003f18482602086016200037c565b91505092915050565b6000620004116200040b84620002d7565b620002b8565b9050808382526020820190506020840283018581111562000437576200043662000306565b5b835b818110156200048557805167ffffffffffffffff81111562000460576200045f6200023d565b5b8086016200046f8982620003c7565b8552602085019450505060208101905062000439565b5050509392505050565b600082601f830112620004a757620004a66200023d565b5b8151620004b9848260208601620003fa565b91505092915050565b60008060408385031215620004dc57620004db62000233565b5b600083015167ffffffffffffffff811115620004fd57620004fc62000238565b5b6200050b858286016200048f565b925050602083015167ffffffffffffffff8111156200052f576200052e62000238565b5b6200053d85828601620003c7565b9150509250929050565b7f4e487b7100000000000000000000000000000000000000000000000000000000600052603260045260246000fd5b7f4e487b7100000000000000000000000000000000000000000000000000000000600052601160045260246000fd5b6000819050919050565b6000620005bc82620005a5565b91507fffffffffffffffffffffffffffffffffffffffffffffffffffffffffffffffff821415620005f257620005f162000576565b5b600182019050919050565b7f4e487b7100000000000000000000000000000000000000000000000000000000600052602260045260246000fd5b600060028204905060018216806200064557607f821691505b602082108114156200065c576200065b620005fd565b5b50919050565b610f9a80620006726000396000f3fe608060405234801561001057600080fd5b50600436106100cf5760003560e01c8063462e91ec1161008c578063a3ec138d11610066578063a3ec138d146101f3578063bb9aa28f14610223578063be1c766b14610241578063cf3edfa11461025f576100cf565b8063462e91ec1461019b57806362b25fc6146101b75780636a2275db146101d5576100cf565b80630121b93f146100d457806306a49fce146100f05780631f7b6d321461010f5780632d35a8a21461012d5780632e4176cf1461014b5780633477ee2e14610169575b600080fd5b6100ee60048036038101906100e991906108a2565b61028f565b005b6100f8610315565b604051610106929190610ae8565b60405180910390f35b6101176104db565b6040516101249190610b2e565b60405180910390f35b6101356104e1565b6040516101429190610b2e565b60405180910390f35b6101536104e7565b6040516101609190610b8a565b60405180910390f35b610183600480360381019061017e91906108a2565b61050d565b60405161019293929190610bef565b60405180910390f35b6101b560048036038101906101b09190610d62565b6105bf565b005b6101bf610641565b6040516101cc9190610dab565b60405180910390f35b6101dd6106d3565b6040516101ea9190610dab565b60405180910390f35b61020d60048036038101906102089190610df9565b610761565b60405161021a9190610e41565b60405180910390f35b61022b610781565b6040516102389190610b2e565b60405180910390f35b61024961078b565b6040516102569190610b2e565b60405180910390f35b610279600480360381019061027491906108a2565b610795565b6040516102869190610b2e565b60405180910390f35b60016000803373ffffffffffffffffffffffffffffffffffffffff1673ffffffffffffffffffffffffffffffffffffffff16815260200190815260200160002060006101000a81548160ff02191690831515021790555060016000828152602001908152602001600020600201600081548092919061030d90610e8b565b919050555050565b606080600060025467ffffffffffffffff81111561033657610335610c37565b5b60405190808252806020026020018201604052801561036957816020015b60608152602001906001900390816103545790505b509050600060025467ffffffffffffffff81111561038a57610389610c37565b5b6040519080825280602002602001820160405280156103b85781602001602082028036833780820191505090505b50905060005b6002548110156104ce576001600082815260200190815260200160002060010180546103e990610f03565b80601f016020809104026020016040519081016040528092919081815260200182805461041590610f03565b80156104625780601f1061043757610100808354040283529160200191610462565b820191906000526020600020905b81548152906001019060200180831161044557829003601f168201915b505050505083828151811061047a57610479610f35565b5b602002602001018190525060016000828152602001908152602001600020600201548282815181106104af576104ae610f35565b5b60200260200101818152505080806104c690610e8b565b9150506103be565b5081819350935050509091565b60035481565b60025481565b600560009054906101000a900473ffffffffffffffffffffffffffffffffffffffff1681565b600160205280600052604060002060009150905080600001549080600101805461053690610f03565b80601f016020809104026020016040519081016040528092919081815260200182805461056290610f03565b80156105af5780601f10610584576101008083540402835291602001916105af565b820191906000526020600020905b81548152906001019060200180831161059257829003601f168201915b5050505050908060020154905083565b6040518060600160405280600254815260200182815260200160008152506001600060025481526020019081526020016000206000820151816000015560208201518160010190805190602001906106189291906107b5565b50604082015181600201559050506002600081548092919061063990610e8b565b919050555050565b60606004805461065090610f03565b80601f016020809104026020016040519081016040528092919081815260200182805461067c90610f03565b80156106c95780601f1061069e576101008083540402835291602001916106c9565b820191906000526020600020905b8154815290600101906020018083116106ac57829003601f168201915b5050505050905090565b600480546106e090610f03565b80601f016020809104026020016040519081016040528092919081815260200182805461070c90610f03565b80156107595780601f1061072e57610100808354040283529160200191610759565b820191906000526020600020905b81548152906001019060200180831161073c57829003601f168201915b505050505081565b60006020528060005260406000206000915054906101000a900460ff1681565b6000600254905090565b6000600354905090565b600060016000838152602001908152602001600020600201549050919050565b8280546107c190610f03565b90600052602060002090601f0160209004810192826107e3576000855561082a565b82601f106107fc57805160ff191683800117855561082a565b8280016001018555821561082a579182015b8281111561082957825182559160200191906001019061080e565b5b509050610837919061083b565b5090565b5b8082111561085457600081600090555060010161083c565b5090565b6000604051905090565b600080fd5b600080fd5b6000819050919050565b61087f8161086c565b811461088a57600080fd5b50565b60008135905061089c81610876565b92915050565b6000602082840312156108b8576108b7610862565b5b60006108c68482850161088d565b91505092915050565b600081519050919050565b600082825260208201905092915050565b6000819050602082019050919050565b600081519050919050565b600082825260208201905092915050565b60005b8381101561093557808201518184015260208101905061091a565b83811115610944576000848401525b50505050565b6000601f19601f8301169050919050565b6000610966826108fb565b6109708185610906565b9350610980818560208601610917565b6109898161094a565b840191505092915050565b60006109a0838361095b565b905092915050565b6000602082019050919050565b60006109c0826108cf565b6109ca81856108da565b9350836020820285016109dc856108eb565b8060005b85811015610a1857848403895281516109f98582610994565b9450610a04836109a8565b925060208a019950506001810190506109e0565b50829750879550505050505092915050565b600081519050919050565b600082825260208201905092915050565b6000819050602082019050919050565b610a5f8161086c565b82525050565b6000610a718383610a56565b60208301905092915050565b6000602082019050919050565b6000610a9582610a2a565b610a9f8185610a35565b9350610aaa83610a46565b8060005b83811015610adb578151610ac28882610a65565b9750610acd83610a7d565b925050600181019050610aae565b5085935050505092915050565b60006040820190508181036000830152610b0281856109b5565b90508181036020830152610b168184610a8a565b90509392505050565b610b288161086c565b82525050565b6000602082019050610b436000830184610b1f565b92915050565b600073ffffffffffffffffffffffffffffffffffffffff82169050919050565b6000610b7482610b49565b9050919050565b610b8481610b69565b82525050565b6000602082019050610b9f6000830184610b7b565b92915050565b600082825260208201905092915050565b6000610bc1826108fb565b610bcb8185610ba5565b9350610bdb818560208601610917565b610be48161094a565b840191505092915050565b6000606082019050610c046000830186610b1f565b8181036020830152610c168185610bb6565b9050610c256040830184610b1f565b949350505050565b600080fd5b600080fd5b7f4e487b7100000000000000000000000000000000000000000000000000000000600052604160045260246000fd5b610c6f8261094a565b810181811067ffffffffffffffff82111715610c8e57610c8d610c37565b5b80604052505050565b6000610ca1610858565b9050610cad8282610c66565b919050565b600067ffffffffffffffff821115610ccd57610ccc610c37565b5b610cd68261094a565b9050602081019050919050565b82818337600083830152505050565b6000610d05610d0084610cb2565b610c97565b905082815260208101848484011115610d2157610d20610c32565b5b610d2c848285610ce3565b509392505050565b600082601f830112610d4957610d48610c2d565b5b8135610d59848260208601610cf2565b91505092915050565b600060208284031215610d7857610d77610862565b5b600082013567ffffffffffffffff811115610d9657610d95610867565b5b610da284828501610d34565b91505092915050565b60006020820190508181036000830152610dc58184610bb6565b905092915050565b610dd681610b69565b8114610de157600080fd5b50565b600081359050610df381610dcd565b92915050565b600060208284031215610e0f57610e0e610862565b5b6000610e1d84828501610de4565b91505092915050565b60008115159050919050565b610e3b81610e26565b82525050565b6000602082019050610e566000830184610e32565b92915050565b7f4e487b7100000000000000000000000000000000000000000000000000000000600052601160045260246000fd5b6000610e968261086c565b91507fffffffffffffffffffffffffffffffffffffffffffffffffffffffffffffffff821415610ec957610ec8610e5c565b5b600182019050919050565b7f4e487b7100000000000000000000000000000000000000000000000000000000600052602260045260246000fd5b60006002820490506001821680610f1b57607f821691505b60208210811415610f2f57610f2e610ed4565b5b50919050565b7f4e487b7100000000000000000000000000000000000000000000000000000000600052603260045260246000fdfea26469706673582212206c8eb1b9f39c83c2ae16ecffa93cab26e693026a276ec679973deb6a0568203864736f6c634300080a0033",
  "immutableReferences": {},
  "source": "// SPDX-License-Identifier: MIT\npragma solidity >=0.4.22 <0.9.0;\n\ncontract Ballot {\n    struct Voter {\n        uint256 voterId;\n        bool voted;\n    }\n\n    struct Candidate {\n        uint256 candidateId;\n        string name;\n        uint256 voteTally;\n    }\n\n    mapping(address => bool) public voters;\n    mapping(uint256 => Candidate) public candidates;\n\n    uint256 public candidatesCount;\n\n    uint256 public length;\n\n    string public proposalName;\n\n    address public chairperson;\n\n    constructor(string[] memory _candidateNames, string memory _proposalName) {\n        chairperson = msg.sender;\n        proposalName = _proposalName;\n        length = _candidateNames.length;\n\n        for (uint256 i = 0; i < _candidateNames.length; i++) {\n            addCandidate(_candidateNames[i]);\n        }\n    }\n\n    function addCandidate(string memory _name) public {\n        candidates[candidatesCount] = Candidate(candidatesCount, _name, 0);\n        candidatesCount++;\n    }\n\n    function getCandidates()\n        external\n        view\n        returns (string[] memory, uint256[] memory)\n    {\n        string[] memory names = new string[](candidatesCount);\n        uint256[] memory voteCounts = new uint256[](candidatesCount);\n        for (uint256 i = 0; i < candidatesCount; i++) {\n            names[i] = candidates[i].name;\n            voteCounts[i] = candidates[i].voteTally;\n        }\n        return (names, voteCounts);\n    }\n\n    function vote(uint256 _candidateId) public {\n        voters[msg.sender] = true;\n        candidates[_candidateId].voteTally++;\n    }\n\n    function getCandidatesCount() public view returns (uint256) {\n        return candidatesCount;\n    }\n\n    function getLength() public view returns (uint256) {\n        return length;\n    }\n\n    function getProposalName() public view returns (string memory) {\n        return proposalName;\n    }\n\n    function readVoteTally(uint256 _candidateId)\n        external\n        view\n        returns (uint256)\n    {\n        return candidates[_candidateId].voteTally;\n    }\n}\n",
  "sourcePath": "/Users/josiahmayanja/fyp_dapp/contracts/Ballot.sol",
  "compiler": {
    "name": "solc",
    "version": "0.8.10+commit.fc410830.Emscripten.clang"
  },
  "schemaVersion": "3.4.4",
  "updatedAt": "2022-01-16T21:18:59.678Z",
  "devdoc": {
    "kind": "dev",
    "methods": {},
    "version": 1
  },
  "userdoc": {
    "kind": "user",
    "methods": {},
    "version": 1
  }
}