{
  "contractName": "Ballot",
  "abi": [
    {
      "inputs": [
        {
          "internalType": "uint256",
          "name": "",
          "type": "uint256"
        }
      ],
      "name": "candidates",
      "outputs": [
        {
          "internalType": "uint256",
          "name": "candidateId",
          "type": "uint256"
        },
        {
          "internalType": "string",
          "name": "name",
          "type": "string"
        },
        {
          "internalType": "uint256",
          "name": "voteTally",
          "type": "uint256"
        }
      ],
      "stateMutability": "view",
      "type": "function",
      "constant": true
    },
    {
      "inputs": [],
      "name": "candidatesCount",
      "outputs": [
        {
          "internalType": "uint256",
          "name": "",
          "type": "uint256"
        }
      ],
      "stateMutability": "view",
      "type": "function",
      "constant": true
    },
    {
      "inputs": [
        {
          "internalType": "address",
          "name": "",
          "type": "address"
        }
      ],
      "name": "voters",
      "outputs": [
        {
          "internalType": "bool",
          "name": "",
          "type": "bool"
        }
      ],
      "stateMutability": "view",
      "type": "function",
      "constant": true
    },
    {
      "inputs": [
        {
          "internalType": "string",
          "name": "_name",
          "type": "string"
        }
      ],
      "name": "addCandidate",
      "outputs": [],
      "stateMutability": "nonpayable",
      "type": "function"
    },
    {
      "inputs": [
        {
          "internalType": "uint256",
          "name": "_candidateId",
          "type": "uint256"
        }
      ],
      "name": "vote",
      "outputs": [],
      "stateMutability": "nonpayable",
      "type": "function"
    },
    {
      "inputs": [],
      "name": "getCandidatesCount",
      "outputs": [
        {
          "internalType": "uint256",
          "name": "",
          "type": "uint256"
        }
      ],
      "stateMutability": "view",
      "type": "function",
      "constant": true
    },
    {
      "inputs": [
        {
          "internalType": "uint256",
          "name": "_candidateId",
          "type": "uint256"
        }
      ],
      "name": "readVoteTally",
      "outputs": [
        {
          "internalType": "uint256",
          "name": "",
          "type": "uint256"
        }
      ],
      "stateMutability": "view",
      "type": "function",
      "constant": true
    }
  ],
  "bytecode": "0x608060405234801561001057600080fd5b506108fb806100206000396000f3fe608060405234801561001057600080fd5b506004361061007d5760003560e01c8063462e91ec1161005b578063462e91ec146100ee578063a3ec138d1461010a578063bb9aa28f1461013a578063cf3edfa1146101585761007d565b80630121b93f146100825780632d35a8a21461009e5780633477ee2e146100bc575b600080fd5b61009c6004803603810190610097919061047f565b610188565b005b6100a661020e565b6040516100b391906104bb565b60405180910390f35b6100d660048036038101906100d1919061047f565b610214565b6040516100e59392919061056f565b60405180910390f35b610108600480360381019061010391906106e2565b6102c6565b005b610124600480360381019061011f9190610789565b610348565b60405161013191906107d1565b60405180910390f35b610142610368565b60405161014f91906104bb565b60405180910390f35b610172600480360381019061016d919061047f565b610372565b60405161017f91906104bb565b60405180910390f35b60016000803373ffffffffffffffffffffffffffffffffffffffff1673ffffffffffffffffffffffffffffffffffffffff16815260200190815260200160002060006101000a81548160ff0219169083151502179055506001600082815260200190815260200160002060020160008154809291906102069061081b565b919050555050565b60025481565b600160205280600052604060002060009150905080600001549080600101805461023d90610893565b80601f016020809104026020016040519081016040528092919081815260200182805461026990610893565b80156102b65780601f1061028b576101008083540402835291602001916102b6565b820191906000526020600020905b81548152906001019060200180831161029957829003601f168201915b5050505050908060020154905083565b600260008154809291906102d99061081b565b9190505550604051806060016040528060025481526020018281526020016000815250600160006002548152602001908152602001600020600082015181600001556020820151816001019080519060200190610337929190610392565b506040820151816002015590505050565b60006020528060005260406000206000915054906101000a900460ff1681565b6000600254905090565b600060016000838152602001908152602001600020600201549050919050565b82805461039e90610893565b90600052602060002090601f0160209004810192826103c05760008555610407565b82601f106103d957805160ff1916838001178555610407565b82800160010185558215610407579182015b828111156104065782518255916020019190600101906103eb565b5b5090506104149190610418565b5090565b5b80821115610431576000816000905550600101610419565b5090565b6000604051905090565b600080fd5b600080fd5b6000819050919050565b61045c81610449565b811461046757600080fd5b50565b60008135905061047981610453565b92915050565b6000602082840312156104955761049461043f565b5b60006104a38482850161046a565b91505092915050565b6104b581610449565b82525050565b60006020820190506104d060008301846104ac565b92915050565b600081519050919050565b600082825260208201905092915050565b60005b838110156105105780820151818401526020810190506104f5565b8381111561051f576000848401525b50505050565b6000601f19601f8301169050919050565b6000610541826104d6565b61054b81856104e1565b935061055b8185602086016104f2565b61056481610525565b840191505092915050565b600060608201905061058460008301866104ac565b81810360208301526105968185610536565b90506105a560408301846104ac565b949350505050565b600080fd5b600080fd5b7f4e487b7100000000000000000000000000000000000000000000000000000000600052604160045260246000fd5b6105ef82610525565b810181811067ffffffffffffffff8211171561060e5761060d6105b7565b5b80604052505050565b6000610621610435565b905061062d82826105e6565b919050565b600067ffffffffffffffff82111561064d5761064c6105b7565b5b61065682610525565b9050602081019050919050565b82818337600083830152505050565b600061068561068084610632565b610617565b9050828152602081018484840111156106a1576106a06105b2565b5b6106ac848285610663565b509392505050565b600082601f8301126106c9576106c86105ad565b5b81356106d9848260208601610672565b91505092915050565b6000602082840312156106f8576106f761043f565b5b600082013567ffffffffffffffff81111561071657610715610444565b5b610722848285016106b4565b91505092915050565b600073ffffffffffffffffffffffffffffffffffffffff82169050919050565b60006107568261072b565b9050919050565b6107668161074b565b811461077157600080fd5b50565b6000813590506107838161075d565b92915050565b60006020828403121561079f5761079e61043f565b5b60006107ad84828501610774565b91505092915050565b60008115159050919050565b6107cb816107b6565b82525050565b60006020820190506107e660008301846107c2565b92915050565b7f4e487b7100000000000000000000000000000000000000000000000000000000600052601160045260246000fd5b600061082682610449565b91507fffffffffffffffffffffffffffffffffffffffffffffffffffffffffffffffff821415610859576108586107ec565b5b600182019050919050565b7f4e487b7100000000000000000000000000000000000000000000000000000000600052602260045260246000fd5b600060028204905060018216806108ab57607f821691505b602082108114156108bf576108be610864565b5b5091905056fea2646970667358221220545c5b51d7f8236ee8727ce2ea3bb0b1be8da03b6ff1e23a7d5e7d0f9098dd5364736f6c634300080a0033",
  "immutableReferences": {},
  "source": "// SPDX-License-Identifier: MIT\npragma solidity >=0.4.22 <0.9.0;\n\ncontract Ballot {\n    struct Voter {\n        uint256 voterId;\n        bool voted;\n    }\n\n    struct Candidate {\n        uint256 candidateId;\n        string name;\n        uint256 voteTally;\n    }\n\n    mapping(address => bool) public voters;\n    mapping(uint256 => Candidate) public candidates;\n\n    uint256 public candidatesCount;\n\n    function addCandidate(string memory _name) external {\n        candidatesCount++;\n        candidates[candidatesCount] = Candidate(candidatesCount, _name, 0);\n    }\n\n    function vote(uint256 _candidateId) public {\n        voters[msg.sender] = true;\n        candidates[_candidateId].voteTally++;\n    }\n\n    function getCandidatesCount() public view returns (uint256) {\n        return candidatesCount;\n    }\n\n    function readVoteTally(uint256 _candidateId)\n        external\n        view\n        returns (uint256)\n    {\n        return candidates[_candidateId].voteTally;\n    }\n}\n",
  "sourcePath": "/Users/josiahmayanja/fyp_dapp/contracts/Ballot.sol",
  "compiler": {
    "name": "solc",
    "version": "0.8.10+commit.fc410830.Emscripten.clang"
  },
  "schemaVersion": "3.4.4",
  "updatedAt": "2022-01-12T18:54:39.626Z",
  "networkType": "ethereum",
  "devdoc": {
    "kind": "dev",
    "methods": {},
    "version": 1
  },
  "userdoc": {
    "kind": "user",
    "methods": {},
    "version": 1
  }
}