{
  "contractName": "Ballot",
  "abi": [
    {
      "inputs": [
        {
          "internalType": "string[]",
          "name": "_candidateNames",
          "type": "string[]"
        },
        {
          "internalType": "string",
          "name": "_proposalName",
          "type": "string"
        },
        {
          "internalType": "address[]",
          "name": "_candidateAddresses",
          "type": "address[]"
        }
      ],
      "stateMutability": "nonpayable",
      "type": "constructor"
    },
    {
      "inputs": [
        {
          "internalType": "uint256",
          "name": "",
          "type": "uint256"
        }
      ],
      "name": "candidates",
      "outputs": [
        {
          "internalType": "uint256",
          "name": "candidateId",
          "type": "uint256"
        },
        {
          "internalType": "string",
          "name": "name",
          "type": "string"
        },
        {
          "internalType": "uint256",
          "name": "voteTally",
          "type": "uint256"
        }
      ],
      "stateMutability": "view",
      "type": "function"
    },
    {
      "inputs": [],
      "name": "candidatesCount",
      "outputs": [
        {
          "internalType": "uint256",
          "name": "",
          "type": "uint256"
        }
      ],
      "stateMutability": "view",
      "type": "function"
    },
    {
      "inputs": [],
      "name": "chairperson",
      "outputs": [
        {
          "internalType": "address",
          "name": "",
          "type": "address"
        }
      ],
      "stateMutability": "view",
      "type": "function"
    },
    {
      "inputs": [
        {
          "internalType": "address",
          "name": "",
          "type": "address"
        }
      ],
      "name": "excludedAddresses",
      "outputs": [
        {
          "internalType": "bool",
          "name": "",
          "type": "bool"
        }
      ],
      "stateMutability": "view",
      "type": "function"
    },
    {
      "inputs": [],
      "name": "length",
      "outputs": [
        {
          "internalType": "uint256",
          "name": "",
          "type": "uint256"
        }
      ],
      "stateMutability": "view",
      "type": "function"
    },
    {
      "inputs": [],
      "name": "proposalName",
      "outputs": [
        {
          "internalType": "string",
          "name": "",
          "type": "string"
        }
      ],
      "stateMutability": "view",
      "type": "function"
    },
    {
      "inputs": [
        {
          "internalType": "address",
          "name": "",
          "type": "address"
        }
      ],
      "name": "voters",
      "outputs": [
        {
          "internalType": "bool",
          "name": "",
          "type": "bool"
        }
      ],
      "stateMutability": "view",
      "type": "function"
    },
    {
      "inputs": [
        {
          "internalType": "address",
          "name": "_address",
          "type": "address"
        }
      ],
      "name": "addCandidateAddress",
      "outputs": [],
      "stateMutability": "nonpayable",
      "type": "function"
    },
    {
      "inputs": [
        {
          "internalType": "string",
          "name": "_name",
          "type": "string"
        }
      ],
      "name": "addCandidate",
      "outputs": [],
      "stateMutability": "nonpayable",
      "type": "function"
    },
    {
      "inputs": [],
      "name": "getCandidates",
      "outputs": [
        {
          "internalType": "string[]",
          "name": "",
          "type": "string[]"
        },
        {
          "internalType": "uint256[]",
          "name": "",
          "type": "uint256[]"
        }
      ],
      "stateMutability": "view",
      "type": "function"
    },
    {
      "inputs": [
        {
          "internalType": "uint256",
          "name": "_candidateId",
          "type": "uint256"
        }
      ],
      "name": "vote",
      "outputs": [],
      "stateMutability": "nonpayable",
      "type": "function"
    },
    {
      "inputs": [],
      "name": "getCandidatesCount",
      "outputs": [
        {
          "internalType": "uint256",
          "name": "",
          "type": "uint256"
        }
      ],
      "stateMutability": "view",
      "type": "function"
    },
    {
      "inputs": [],
      "name": "getLength",
      "outputs": [
        {
          "internalType": "uint256",
          "name": "",
          "type": "uint256"
        }
      ],
      "stateMutability": "view",
      "type": "function"
    },
    {
      "inputs": [],
      "name": "getProposalName",
      "outputs": [
        {
          "internalType": "string",
          "name": "",
          "type": "string"
        }
      ],
      "stateMutability": "view",
      "type": "function"
    },
    {
      "inputs": [
        {
          "internalType": "uint256",
          "name": "_candidateId",
          "type": "uint256"
        }
      ],
      "name": "readVoteTally",
      "outputs": [
        {
          "internalType": "uint256",
          "name": "",
          "type": "uint256"
        }
      ],
      "stateMutability": "view",
      "type": "function"
    }
  ],
  "bytecode": "0x60806040523480156200001157600080fd5b50604051620019ed380380620019ed8339818101604052810190620000379190620006bb565b33600660006101000a81548173ffffffffffffffffffffffffffffffffffffffff021916908373ffffffffffffffffffffffffffffffffffffffff16021790555081600590805190602001906200009092919062000237565b50825160048190555060005b8351811015620000ea57620000d4848281518110620000c057620000bf62000774565b5b60200260200101516200015760201b60201c565b8080620000e190620007dc565b9150506200009c565b5060005b81518110156200013c576200012682828151811062000112576200011162000774565b5b6020026020010151620001dd60201b60201c565b80806200013390620007dc565b915050620000ee565b506200014e33620001dd60201b60201c565b5050506200088f565b604051806060016040528060035481526020018281526020016000815250600160006003548152602001908152602001600020600082015181600001556020820151816001019080519060200190620001b292919062000237565b506040820151816002015590505060036000815480929190620001d590620007dc565b919050555050565b60016000808373ffffffffffffffffffffffffffffffffffffffff1673ffffffffffffffffffffffffffffffffffffffff16815260200190815260200160002060006101000a81548160ff02191690831515021790555050565b828054620002459062000859565b90600052602060002090601f016020900481019282620002695760008555620002b5565b82601f106200028457805160ff1916838001178555620002b5565b82800160010185558215620002b5579182015b82811115620002b457825182559160200191906001019062000297565b5b509050620002c49190620002c8565b5090565b5b80821115620002e3576000816000905550600101620002c9565b5090565b6000604051905090565b600080fd5b600080fd5b600080fd5b6000601f19601f8301169050919050565b7f4e487b7100000000000000000000000000000000000000000000000000000000600052604160045260246000fd5b6200034b8262000300565b810181811067ffffffffffffffff821117156200036d576200036c62000311565b5b80604052505050565b600062000382620002e7565b905062000390828262000340565b919050565b600067ffffffffffffffff821115620003b357620003b262000311565b5b602082029050602081019050919050565b600080fd5b600080fd5b600067ffffffffffffffff821115620003ec57620003eb62000311565b5b620003f78262000300565b9050602081019050919050565b60005b838110156200042457808201518184015260208101905062000407565b8381111562000434576000848401525b50505050565b6000620004516200044b84620003ce565b62000376565b90508281526020810184848401111562000470576200046f620003c9565b5b6200047d84828562000404565b509392505050565b600082601f8301126200049d576200049c620002fb565b5b8151620004af8482602086016200043a565b91505092915050565b6000620004cf620004c98462000395565b62000376565b90508083825260208201905060208402830185811115620004f557620004f4620003c4565b5b835b818110156200054357805167ffffffffffffffff8111156200051e576200051d620002fb565b5b8086016200052d898262000485565b85526020850194505050602081019050620004f7565b5050509392505050565b600082601f830112620005655762000564620002fb565b5b815162000577848260208601620004b8565b91505092915050565b600067ffffffffffffffff8211156200059e576200059d62000311565b5b602082029050602081019050919050565b600073ffffffffffffffffffffffffffffffffffffffff82169050919050565b6000620005dc82620005af565b9050919050565b620005ee81620005cf565b8114620005fa57600080fd5b50565b6000815190506200060e81620005e3565b92915050565b60006200062b620006258462000580565b62000376565b90508083825260208201905060208402830185811115620006515762000650620003c4565b5b835b818110156200067e5780620006698882620005fd565b84526020840193505060208101905062000653565b5050509392505050565b600082601f830112620006a0576200069f620002fb565b5b8151620006b284826020860162000614565b91505092915050565b600080600060608486031215620006d757620006d6620002f1565b5b600084015167ffffffffffffffff811115620006f857620006f7620002f6565b5b62000706868287016200054d565b935050602084015167ffffffffffffffff8111156200072a5762000729620002f6565b5b620007388682870162000485565b925050604084015167ffffffffffffffff8111156200075c576200075b620002f6565b5b6200076a8682870162000688565b9150509250925092565b7f4e487b7100000000000000000000000000000000000000000000000000000000600052603260045260246000fd5b7f4e487b7100000000000000000000000000000000000000000000000000000000600052601160045260246000fd5b6000819050919050565b6000620007e982620007d2565b91507fffffffffffffffffffffffffffffffffffffffffffffffffffffffffffffffff8214156200081f576200081e620007a3565b5b600182019050919050565b7f4e487b7100000000000000000000000000000000000000000000000000000000600052602260045260246000fd5b600060028204905060018216806200087257607f821691505b602082108114156200088957620008886200082a565b5b50919050565b61114e806200089f6000396000f3fe608060405234801561001057600080fd5b50600436106100f55760003560e01c80635d3f849711610097578063bb9aa28f11610066578063bb9aa28f14610265578063be1c766b14610283578063cf011b26146102a1578063cf3edfa1146102d1576100f5565b80635d3f8497146101dd57806362b25fc6146101f95780636a2275db14610217578063a3ec138d14610235576100f5565b80632d35a8a2116100d35780632d35a8a2146101535780632e4176cf146101715780633477ee2e1461018f578063462e91ec146101c1576100f5565b80630121b93f146100fa57806306a49fce146101165780631f7b6d3214610135575b600080fd5b610114600480360381019061010f9190610a56565b610301565b005b61011e61044f565b60405161012c929190610c9c565b60405180910390f35b61013d610615565b60405161014a9190610ce2565b60405180910390f35b61015b61061b565b6040516101689190610ce2565b60405180910390f35b610179610621565b6040516101869190610d3e565b60405180910390f35b6101a960048036038101906101a49190610a56565b610647565b6040516101b893929190610da3565b60405180910390f35b6101db60048036038101906101d69190610f16565b6106f9565b005b6101f760048036038101906101f29190610f8b565b61077b565b005b6102016107d5565b60405161020e9190610fb8565b60405180910390f35b61021f610867565b60405161022c9190610fb8565b60405180910390f35b61024f600480360381019061024a9190610f8b565b6108f5565b60405161025c9190610ff5565b60405180910390f35b61026d610915565b60405161027a9190610ce2565b60405180910390f35b61028b61091f565b6040516102989190610ce2565b60405180910390f35b6102bb60048036038101906102b69190610f8b565b610929565b6040516102c89190610ff5565b60405180910390f35b6102eb60048036038101906102e69190610a56565b610949565b6040516102f89190610ce2565b60405180910390f35b600260003373ffffffffffffffffffffffffffffffffffffffff1673ffffffffffffffffffffffffffffffffffffffff16815260200190815260200160002060009054906101000a900460ff161561035857600080fd5b6000803373ffffffffffffffffffffffffffffffffffffffff1673ffffffffffffffffffffffffffffffffffffffff16815260200190815260200160002060009054906101000a900460ff16156103ae57600080fd5b600081101580156103c0575060035481105b6103c957600080fd5b60016000803373ffffffffffffffffffffffffffffffffffffffff1673ffffffffffffffffffffffffffffffffffffffff16815260200190815260200160002060006101000a81548160ff0219169083151502179055506001600082815260200190815260200160002060020160008154809291906104479061103f565b919050555050565b606080600060035467ffffffffffffffff8111156104705761046f610deb565b5b6040519080825280602002602001820160405280156104a357816020015b606081526020019060019003908161048e5790505b509050600060035467ffffffffffffffff8111156104c4576104c3610deb565b5b6040519080825280602002602001820160405280156104f25781602001602082028036833780820191505090505b50905060005b60035481101561060857600160008281526020019081526020016000206001018054610523906110b7565b80601f016020809104026020016040519081016040528092919081815260200182805461054f906110b7565b801561059c5780601f106105715761010080835404028352916020019161059c565b820191906000526020600020905b81548152906001019060200180831161057f57829003601f168201915b50505050508382815181106105b4576105b36110e9565b5b602002602001018190525060016000828152602001908152602001600020600201548282815181106105e9576105e86110e9565b5b60200260200101818152505080806106009061103f565b9150506104f8565b5081819350935050509091565b60045481565b60035481565b600660009054906101000a900473ffffffffffffffffffffffffffffffffffffffff1681565b6001602052806000526040600020600091509050806000015490806001018054610670906110b7565b80601f016020809104026020016040519081016040528092919081815260200182805461069c906110b7565b80156106e95780601f106106be576101008083540402835291602001916106e9565b820191906000526020600020905b8154815290600101906020018083116106cc57829003601f168201915b5050505050908060020154905083565b604051806060016040528060035481526020018281526020016000815250600160006003548152602001908152602001600020600082015181600001556020820151816001019080519060200190610752929190610969565b5060408201518160020155905050600360008154809291906107739061103f565b919050555050565b60016000808373ffffffffffffffffffffffffffffffffffffffff1673ffffffffffffffffffffffffffffffffffffffff16815260200190815260200160002060006101000a81548160ff02191690831515021790555050565b6060600580546107e4906110b7565b80601f0160208091040260200160405190810160405280929190818152602001828054610810906110b7565b801561085d5780601f106108325761010080835404028352916020019161085d565b820191906000526020600020905b81548152906001019060200180831161084057829003601f168201915b5050505050905090565b60058054610874906110b7565b80601f01602080910402602001604051908101604052809291908181526020018280546108a0906110b7565b80156108ed5780601f106108c2576101008083540402835291602001916108ed565b820191906000526020600020905b8154815290600101906020018083116108d057829003601f168201915b505050505081565b60006020528060005260406000206000915054906101000a900460ff1681565b6000600354905090565b6000600454905090565b60026020528060005260406000206000915054906101000a900460ff1681565b600060016000838152602001908152602001600020600201549050919050565b828054610975906110b7565b90600052602060002090601f01602090048101928261099757600085556109de565b82601f106109b057805160ff19168380011785556109de565b828001600101855582156109de579182015b828111156109dd5782518255916020019190600101906109c2565b5b5090506109eb91906109ef565b5090565b5b80821115610a085760008160009055506001016109f0565b5090565b6000604051905090565b600080fd5b600080fd5b6000819050919050565b610a3381610a20565b8114610a3e57600080fd5b50565b600081359050610a5081610a2a565b92915050565b600060208284031215610a6c57610a6b610a16565b5b6000610a7a84828501610a41565b91505092915050565b600081519050919050565b600082825260208201905092915050565b6000819050602082019050919050565b600081519050919050565b600082825260208201905092915050565b60005b83811015610ae9578082015181840152602081019050610ace565b83811115610af8576000848401525b50505050565b6000601f19601f8301169050919050565b6000610b1a82610aaf565b610b248185610aba565b9350610b34818560208601610acb565b610b3d81610afe565b840191505092915050565b6000610b548383610b0f565b905092915050565b6000602082019050919050565b6000610b7482610a83565b610b7e8185610a8e565b935083602082028501610b9085610a9f565b8060005b85811015610bcc5784840389528151610bad8582610b48565b9450610bb883610b5c565b925060208a01995050600181019050610b94565b50829750879550505050505092915050565b600081519050919050565b600082825260208201905092915050565b6000819050602082019050919050565b610c1381610a20565b82525050565b6000610c258383610c0a565b60208301905092915050565b6000602082019050919050565b6000610c4982610bde565b610c538185610be9565b9350610c5e83610bfa565b8060005b83811015610c8f578151610c768882610c19565b9750610c8183610c31565b925050600181019050610c62565b5085935050505092915050565b60006040820190508181036000830152610cb68185610b69565b90508181036020830152610cca8184610c3e565b90509392505050565b610cdc81610a20565b82525050565b6000602082019050610cf76000830184610cd3565b92915050565b600073ffffffffffffffffffffffffffffffffffffffff82169050919050565b6000610d2882610cfd565b9050919050565b610d3881610d1d565b82525050565b6000602082019050610d536000830184610d2f565b92915050565b600082825260208201905092915050565b6000610d7582610aaf565b610d7f8185610d59565b9350610d8f818560208601610acb565b610d9881610afe565b840191505092915050565b6000606082019050610db86000830186610cd3565b8181036020830152610dca8185610d6a565b9050610dd96040830184610cd3565b949350505050565b600080fd5b600080fd5b7f4e487b7100000000000000000000000000000000000000000000000000000000600052604160045260246000fd5b610e2382610afe565b810181811067ffffffffffffffff82111715610e4257610e41610deb565b5b80604052505050565b6000610e55610a0c565b9050610e618282610e1a565b919050565b600067ffffffffffffffff821115610e8157610e80610deb565b5b610e8a82610afe565b9050602081019050919050565b82818337600083830152505050565b6000610eb9610eb484610e66565b610e4b565b905082815260208101848484011115610ed557610ed4610de6565b5b610ee0848285610e97565b509392505050565b600082601f830112610efd57610efc610de1565b5b8135610f0d848260208601610ea6565b91505092915050565b600060208284031215610f2c57610f2b610a16565b5b600082013567ffffffffffffffff811115610f4a57610f49610a1b565b5b610f5684828501610ee8565b91505092915050565b610f6881610d1d565b8114610f7357600080fd5b50565b600081359050610f8581610f5f565b92915050565b600060208284031215610fa157610fa0610a16565b5b6000610faf84828501610f76565b91505092915050565b60006020820190508181036000830152610fd28184610d6a565b905092915050565b60008115159050919050565b610fef81610fda565b82525050565b600060208201905061100a6000830184610fe6565b92915050565b7f4e487b7100000000000000000000000000000000000000000000000000000000600052601160045260246000fd5b600061104a82610a20565b91507fffffffffffffffffffffffffffffffffffffffffffffffffffffffffffffffff82141561107d5761107c611010565b5b600182019050919050565b7f4e487b7100000000000000000000000000000000000000000000000000000000600052602260045260246000fd5b600060028204905060018216806110cf57607f821691505b602082108114156110e3576110e2611088565b5b50919050565b7f4e487b7100000000000000000000000000000000000000000000000000000000600052603260045260246000fdfea26469706673582212200ea4df8e34107584c846235f1dc1b13c49b77a249dae2b62ec6878091aa51e0164736f6c634300080a0033",
  "immutableReferences": {},
  "source": "// SPDX-License-Identifier: MIT\npragma solidity >=0.4.22 <0.9.0;\n\ncontract Ballot {\n    struct Voter {\n        uint256 voterId;\n        bool voted;\n    }\n\n    struct Candidate {\n        uint256 candidateId;\n        string name;\n        uint256 voteTally;\n    }\n\n    mapping(address => bool) public voters;\n    mapping(uint256 => Candidate) public candidates;\n    mapping(address => bool) public excludedAddresses;\n\n    uint256 public candidatesCount;\n\n    uint256 public length;\n\n    string public proposalName;\n\n    address public chairperson;\n\n    constructor(\n        string[] memory _candidateNames,\n        string memory _proposalName,\n        address[] memory _candidateAddresses\n    ) {\n        chairperson = msg.sender;\n        proposalName = _proposalName;\n        length = _candidateNames.length;\n\n        for (uint256 i = 0; i < _candidateNames.length; i++) {\n            addCandidate(_candidateNames[i]);\n        }\n\n        for (uint256 i = 0; i < _candidateAddresses.length; i++) {\n            addCandidateAddress(_candidateAddresses[i]);\n        }\n\n        addCandidateAddress(msg.sender);\n    }\n\n    function addCandidateAddress(address _address) public {\n        voters[_address] = true;\n    }\n\n    function addCandidate(string memory _name) public {\n        candidates[candidatesCount] = Candidate(candidatesCount, _name, 0);\n        candidatesCount++;\n    }\n\n    function getCandidates()\n        external\n        view\n        returns (string[] memory, uint256[] memory)\n    {\n        string[] memory names = new string[](candidatesCount);\n        uint256[] memory voteCounts = new uint256[](candidatesCount);\n        for (uint256 i = 0; i < candidatesCount; i++) {\n            names[i] = candidates[i].name;\n            voteCounts[i] = candidates[i].voteTally; //\n        }\n        return (names, voteCounts);\n    }\n\n    function vote(uint256 _candidateId) public {\n        require(!excludedAddresses[msg.sender]);\n        require(!voters[msg.sender]);\n        require(_candidateId >= 0 && _candidateId < candidatesCount);\n\n        voters[msg.sender] = true;\n        candidates[_candidateId].voteTally++;\n    }\n\n    function getCandidatesCount() public view returns (uint256) {\n        return candidatesCount;\n    }\n\n    function getLength() public view returns (uint256) {\n        return length;\n    }\n\n    function getProposalName() public view returns (string memory) {\n        return proposalName;\n    }\n\n    function readVoteTally(uint256 _candidateId)\n        external\n        view\n        returns (uint256)\n    {\n        return candidates[_candidateId].voteTally;\n    }\n}\n",
  "sourcePath": "/Users/josiahmayanja/fyp_dapp/contracts/Ballot.sol",
  "compiler": {
    "name": "solc",
    "version": "0.8.10+commit.fc410830.Emscripten.clang"
  },
  "schemaVersion": "3.4.4",
  "updatedAt": "2022-02-03T01:01:39.320Z",
  "devdoc": {
    "kind": "dev",
    "methods": {},
    "version": 1
  },
  "userdoc": {
    "kind": "user",
    "methods": {},
    "version": 1
  }
}