{
  "contractName": "Ballot",
  "abi": [
    {
      "inputs": [
        {
          "internalType": "string[]",
          "name": "_candidateNames",
          "type": "string[]"
        },
        {
          "internalType": "string",
          "name": "_proposalName",
          "type": "string"
        },
        {
          "internalType": "address[]",
          "name": "_candidateAddresses",
          "type": "address[]"
        }
      ],
      "stateMutability": "nonpayable",
      "type": "constructor"
    },
    {
      "inputs": [
        {
          "internalType": "uint256",
          "name": "",
          "type": "uint256"
        }
      ],
      "name": "candidates",
      "outputs": [
        {
          "internalType": "uint256",
          "name": "candidateId",
          "type": "uint256"
        },
        {
          "internalType": "string",
          "name": "name",
          "type": "string"
        },
        {
          "internalType": "uint256",
          "name": "voteTally",
          "type": "uint256"
        }
      ],
      "stateMutability": "view",
      "type": "function"
    },
    {
      "inputs": [],
      "name": "candidatesCount",
      "outputs": [
        {
          "internalType": "uint256",
          "name": "",
          "type": "uint256"
        }
      ],
      "stateMutability": "view",
      "type": "function"
    },
    {
      "inputs": [],
      "name": "chairperson",
      "outputs": [
        {
          "internalType": "address",
          "name": "",
          "type": "address"
        }
      ],
      "stateMutability": "view",
      "type": "function"
    },
    {
      "inputs": [
        {
          "internalType": "address",
          "name": "",
          "type": "address"
        }
      ],
      "name": "excludedAddresses",
      "outputs": [
        {
          "internalType": "bool",
          "name": "",
          "type": "bool"
        }
      ],
      "stateMutability": "view",
      "type": "function"
    },
    {
      "inputs": [],
      "name": "length",
      "outputs": [
        {
          "internalType": "uint256",
          "name": "",
          "type": "uint256"
        }
      ],
      "stateMutability": "view",
      "type": "function"
    },
    {
      "inputs": [],
      "name": "proposalName",
      "outputs": [
        {
          "internalType": "string",
          "name": "",
          "type": "string"
        }
      ],
      "stateMutability": "view",
      "type": "function"
    },
    {
      "inputs": [
        {
          "internalType": "address",
          "name": "",
          "type": "address"
        }
      ],
      "name": "voters",
      "outputs": [
        {
          "internalType": "bool",
          "name": "",
          "type": "bool"
        }
      ],
      "stateMutability": "view",
      "type": "function"
    },
    {
      "inputs": [
        {
          "internalType": "address",
          "name": "_address",
          "type": "address"
        }
      ],
      "name": "addCandidateAddress",
      "outputs": [],
      "stateMutability": "nonpayable",
      "type": "function"
    },
    {
      "inputs": [
        {
          "internalType": "string",
          "name": "_name",
          "type": "string"
        }
      ],
      "name": "addCandidate",
      "outputs": [],
      "stateMutability": "nonpayable",
      "type": "function"
    },
    {
      "inputs": [],
      "name": "getCandidates",
      "outputs": [
        {
          "internalType": "string[]",
          "name": "",
          "type": "string[]"
        },
        {
          "internalType": "uint256[]",
          "name": "",
          "type": "uint256[]"
        }
      ],
      "stateMutability": "view",
      "type": "function"
    },
    {
      "inputs": [
        {
          "internalType": "uint256",
          "name": "_candidateId",
          "type": "uint256"
        }
      ],
      "name": "vote",
      "outputs": [],
      "stateMutability": "nonpayable",
      "type": "function"
    },
    {
      "inputs": [],
      "name": "getCandidatesCount",
      "outputs": [
        {
          "internalType": "uint256",
          "name": "",
          "type": "uint256"
        }
      ],
      "stateMutability": "view",
      "type": "function"
    },
    {
      "inputs": [],
      "name": "getLength",
      "outputs": [
        {
          "internalType": "uint256",
          "name": "",
          "type": "uint256"
        }
      ],
      "stateMutability": "view",
      "type": "function"
    },
    {
      "inputs": [],
      "name": "getProposalName",
      "outputs": [
        {
          "internalType": "string",
          "name": "",
          "type": "string"
        }
      ],
      "stateMutability": "view",
      "type": "function"
    },
    {
      "inputs": [
        {
          "internalType": "uint256",
          "name": "_candidateId",
          "type": "uint256"
        }
      ],
      "name": "readVoteTally",
      "outputs": [
        {
          "internalType": "uint256",
          "name": "",
          "type": "uint256"
        }
      ],
      "stateMutability": "view",
      "type": "function"
    }
  ],
  "bytecode": "0x60806040523480156200001157600080fd5b5060405162001914380380620019148339818101604052810190620000379190620006aa565b33600660006101000a81548173ffffffffffffffffffffffffffffffffffffffff021916908373ffffffffffffffffffffffffffffffffffffffff16021790555081600590805190602001906200009092919062000226565b50825160048190555060005b8351811015620000ea57620000d4848281518110620000c057620000bf62000763565b5b60200260200101516200014660201b60201c565b8080620000e190620007cb565b9150506200009c565b5060005b81518110156200013c576200012682828151811062000112576200011162000763565b5b6020026020010151620001cc60201b60201c565b80806200013390620007cb565b915050620000ee565b505050506200087e565b604051806060016040528060035481526020018281526020016000815250600160006003548152602001908152602001600020600082015181600001556020820151816001019080519060200190620001a192919062000226565b506040820151816002015590505060036000815480929190620001c490620007cb565b919050555050565b60016000808373ffffffffffffffffffffffffffffffffffffffff1673ffffffffffffffffffffffffffffffffffffffff16815260200190815260200160002060006101000a81548160ff02191690831515021790555050565b828054620002349062000848565b90600052602060002090601f016020900481019282620002585760008555620002a4565b82601f106200027357805160ff1916838001178555620002a4565b82800160010185558215620002a4579182015b82811115620002a357825182559160200191906001019062000286565b5b509050620002b39190620002b7565b5090565b5b80821115620002d2576000816000905550600101620002b8565b5090565b6000604051905090565b600080fd5b600080fd5b600080fd5b6000601f19601f8301169050919050565b7f4e487b7100000000000000000000000000000000000000000000000000000000600052604160045260246000fd5b6200033a82620002ef565b810181811067ffffffffffffffff821117156200035c576200035b62000300565b5b80604052505050565b600062000371620002d6565b90506200037f82826200032f565b919050565b600067ffffffffffffffff821115620003a257620003a162000300565b5b602082029050602081019050919050565b600080fd5b600080fd5b600067ffffffffffffffff821115620003db57620003da62000300565b5b620003e682620002ef565b9050602081019050919050565b60005b8381101562000413578082015181840152602081019050620003f6565b8381111562000423576000848401525b50505050565b6000620004406200043a84620003bd565b62000365565b9050828152602081018484840111156200045f576200045e620003b8565b5b6200046c848285620003f3565b509392505050565b600082601f8301126200048c576200048b620002ea565b5b81516200049e84826020860162000429565b91505092915050565b6000620004be620004b88462000384565b62000365565b90508083825260208201905060208402830185811115620004e457620004e3620003b3565b5b835b818110156200053257805167ffffffffffffffff8111156200050d576200050c620002ea565b5b8086016200051c898262000474565b85526020850194505050602081019050620004e6565b5050509392505050565b600082601f830112620005545762000553620002ea565b5b815162000566848260208601620004a7565b91505092915050565b600067ffffffffffffffff8211156200058d576200058c62000300565b5b602082029050602081019050919050565b600073ffffffffffffffffffffffffffffffffffffffff82169050919050565b6000620005cb826200059e565b9050919050565b620005dd81620005be565b8114620005e957600080fd5b50565b600081519050620005fd81620005d2565b92915050565b60006200061a62000614846200056f565b62000365565b9050808382526020820190506020840283018581111562000640576200063f620003b3565b5b835b818110156200066d5780620006588882620005ec565b84526020840193505060208101905062000642565b5050509392505050565b600082601f8301126200068f576200068e620002ea565b5b8151620006a184826020860162000603565b91505092915050565b600080600060608486031215620006c657620006c5620002e0565b5b600084015167ffffffffffffffff811115620006e757620006e6620002e5565b5b620006f5868287016200053c565b935050602084015167ffffffffffffffff811115620007195762000718620002e5565b5b620007278682870162000474565b925050604084015167ffffffffffffffff8111156200074b576200074a620002e5565b5b620007598682870162000677565b9150509250925092565b7f4e487b7100000000000000000000000000000000000000000000000000000000600052603260045260246000fd5b7f4e487b7100000000000000000000000000000000000000000000000000000000600052601160045260246000fd5b6000819050919050565b6000620007d882620007c1565b91507fffffffffffffffffffffffffffffffffffffffffffffffffffffffffffffffff8214156200080e576200080d62000792565b5b600182019050919050565b7f4e487b7100000000000000000000000000000000000000000000000000000000600052602260045260246000fd5b600060028204905060018216806200086157607f821691505b6020821081141562000878576200087762000819565b5b50919050565b611086806200088e6000396000f3fe608060405234801561001057600080fd5b50600436106100f55760003560e01c80635d3f849711610097578063bb9aa28f11610066578063bb9aa28f14610265578063be1c766b14610283578063cf011b26146102a1578063cf3edfa1146102d1576100f5565b80635d3f8497146101dd57806362b25fc6146101f95780636a2275db14610217578063a3ec138d14610235576100f5565b80632d35a8a2116100d35780632d35a8a2146101535780632e4176cf146101715780633477ee2e1461018f578063462e91ec146101c1576100f5565b80630121b93f146100fa57806306a49fce146101165780631f7b6d3214610135575b600080fd5b610114600480360381019061010f919061098e565b610301565b005b61011e610387565b60405161012c929190610bd4565b60405180910390f35b61013d61054d565b60405161014a9190610c1a565b60405180910390f35b61015b610553565b6040516101689190610c1a565b60405180910390f35b610179610559565b6040516101869190610c76565b60405180910390f35b6101a960048036038101906101a4919061098e565b61057f565b6040516101b893929190610cdb565b60405180910390f35b6101db60048036038101906101d69190610e4e565b610631565b005b6101f760048036038101906101f29190610ec3565b6106b3565b005b61020161070d565b60405161020e9190610ef0565b60405180910390f35b61021f61079f565b60405161022c9190610ef0565b60405180910390f35b61024f600480360381019061024a9190610ec3565b61082d565b60405161025c9190610f2d565b60405180910390f35b61026d61084d565b60405161027a9190610c1a565b60405180910390f35b61028b610857565b6040516102989190610c1a565b60405180910390f35b6102bb60048036038101906102b69190610ec3565b610861565b6040516102c89190610f2d565b60405180910390f35b6102eb60048036038101906102e6919061098e565b610881565b6040516102f89190610c1a565b60405180910390f35b60016000803373ffffffffffffffffffffffffffffffffffffffff1673ffffffffffffffffffffffffffffffffffffffff16815260200190815260200160002060006101000a81548160ff02191690831515021790555060016000828152602001908152602001600020600201600081548092919061037f90610f77565b919050555050565b606080600060035467ffffffffffffffff8111156103a8576103a7610d23565b5b6040519080825280602002602001820160405280156103db57816020015b60608152602001906001900390816103c65790505b509050600060035467ffffffffffffffff8111156103fc576103fb610d23565b5b60405190808252806020026020018201604052801561042a5781602001602082028036833780820191505090505b50905060005b6003548110156105405760016000828152602001908152602001600020600101805461045b90610fef565b80601f016020809104026020016040519081016040528092919081815260200182805461048790610fef565b80156104d45780601f106104a9576101008083540402835291602001916104d4565b820191906000526020600020905b8154815290600101906020018083116104b757829003601f168201915b50505050508382815181106104ec576104eb611021565b5b6020026020010181905250600160008281526020019081526020016000206002015482828151811061052157610520611021565b5b602002602001018181525050808061053890610f77565b915050610430565b5081819350935050509091565b60045481565b60035481565b600660009054906101000a900473ffffffffffffffffffffffffffffffffffffffff1681565b60016020528060005260406000206000915090508060000154908060010180546105a890610fef565b80601f01602080910402602001604051908101604052809291908181526020018280546105d490610fef565b80156106215780601f106105f657610100808354040283529160200191610621565b820191906000526020600020905b81548152906001019060200180831161060457829003601f168201915b5050505050908060020154905083565b60405180606001604052806003548152602001828152602001600081525060016000600354815260200190815260200160002060008201518160000155602082015181600101908051906020019061068a9291906108a1565b5060408201518160020155905050600360008154809291906106ab90610f77565b919050555050565b60016000808373ffffffffffffffffffffffffffffffffffffffff1673ffffffffffffffffffffffffffffffffffffffff16815260200190815260200160002060006101000a81548160ff02191690831515021790555050565b60606005805461071c90610fef565b80601f016020809104026020016040519081016040528092919081815260200182805461074890610fef565b80156107955780601f1061076a57610100808354040283529160200191610795565b820191906000526020600020905b81548152906001019060200180831161077857829003601f168201915b5050505050905090565b600580546107ac90610fef565b80601f01602080910402602001604051908101604052809291908181526020018280546107d890610fef565b80156108255780601f106107fa57610100808354040283529160200191610825565b820191906000526020600020905b81548152906001019060200180831161080857829003601f168201915b505050505081565b60006020528060005260406000206000915054906101000a900460ff1681565b6000600354905090565b6000600454905090565b60026020528060005260406000206000915054906101000a900460ff1681565b600060016000838152602001908152602001600020600201549050919050565b8280546108ad90610fef565b90600052602060002090601f0160209004810192826108cf5760008555610916565b82601f106108e857805160ff1916838001178555610916565b82800160010185558215610916579182015b828111156109155782518255916020019190600101906108fa565b5b5090506109239190610927565b5090565b5b80821115610940576000816000905550600101610928565b5090565b6000604051905090565b600080fd5b600080fd5b6000819050919050565b61096b81610958565b811461097657600080fd5b50565b60008135905061098881610962565b92915050565b6000602082840312156109a4576109a361094e565b5b60006109b284828501610979565b91505092915050565b600081519050919050565b600082825260208201905092915050565b6000819050602082019050919050565b600081519050919050565b600082825260208201905092915050565b60005b83811015610a21578082015181840152602081019050610a06565b83811115610a30576000848401525b50505050565b6000601f19601f8301169050919050565b6000610a52826109e7565b610a5c81856109f2565b9350610a6c818560208601610a03565b610a7581610a36565b840191505092915050565b6000610a8c8383610a47565b905092915050565b6000602082019050919050565b6000610aac826109bb565b610ab681856109c6565b935083602082028501610ac8856109d7565b8060005b85811015610b045784840389528151610ae58582610a80565b9450610af083610a94565b925060208a01995050600181019050610acc565b50829750879550505050505092915050565b600081519050919050565b600082825260208201905092915050565b6000819050602082019050919050565b610b4b81610958565b82525050565b6000610b5d8383610b42565b60208301905092915050565b6000602082019050919050565b6000610b8182610b16565b610b8b8185610b21565b9350610b9683610b32565b8060005b83811015610bc7578151610bae8882610b51565b9750610bb983610b69565b925050600181019050610b9a565b5085935050505092915050565b60006040820190508181036000830152610bee8185610aa1565b90508181036020830152610c028184610b76565b90509392505050565b610c1481610958565b82525050565b6000602082019050610c2f6000830184610c0b565b92915050565b600073ffffffffffffffffffffffffffffffffffffffff82169050919050565b6000610c6082610c35565b9050919050565b610c7081610c55565b82525050565b6000602082019050610c8b6000830184610c67565b92915050565b600082825260208201905092915050565b6000610cad826109e7565b610cb78185610c91565b9350610cc7818560208601610a03565b610cd081610a36565b840191505092915050565b6000606082019050610cf06000830186610c0b565b8181036020830152610d028185610ca2565b9050610d116040830184610c0b565b949350505050565b600080fd5b600080fd5b7f4e487b7100000000000000000000000000000000000000000000000000000000600052604160045260246000fd5b610d5b82610a36565b810181811067ffffffffffffffff82111715610d7a57610d79610d23565b5b80604052505050565b6000610d8d610944565b9050610d998282610d52565b919050565b600067ffffffffffffffff821115610db957610db8610d23565b5b610dc282610a36565b9050602081019050919050565b82818337600083830152505050565b6000610df1610dec84610d9e565b610d83565b905082815260208101848484011115610e0d57610e0c610d1e565b5b610e18848285610dcf565b509392505050565b600082601f830112610e3557610e34610d19565b5b8135610e45848260208601610dde565b91505092915050565b600060208284031215610e6457610e6361094e565b5b600082013567ffffffffffffffff811115610e8257610e81610953565b5b610e8e84828501610e20565b91505092915050565b610ea081610c55565b8114610eab57600080fd5b50565b600081359050610ebd81610e97565b92915050565b600060208284031215610ed957610ed861094e565b5b6000610ee784828501610eae565b91505092915050565b60006020820190508181036000830152610f0a8184610ca2565b905092915050565b60008115159050919050565b610f2781610f12565b82525050565b6000602082019050610f426000830184610f1e565b92915050565b7f4e487b7100000000000000000000000000000000000000000000000000000000600052601160045260246000fd5b6000610f8282610958565b91507fffffffffffffffffffffffffffffffffffffffffffffffffffffffffffffffff821415610fb557610fb4610f48565b5b600182019050919050565b7f4e487b7100000000000000000000000000000000000000000000000000000000600052602260045260246000fd5b6000600282049050600182168061100757607f821691505b6020821081141561101b5761101a610fc0565b5b50919050565b7f4e487b7100000000000000000000000000000000000000000000000000000000600052603260045260246000fdfea2646970667358221220eaa9e35df8b01f431ee7d88cffed3bc6a8dad2d0d664e870392a44b55183977d64736f6c634300080a0033",
  "immutableReferences": {},
  "source": "// SPDX-License-Identifier: MIT\npragma solidity >=0.4.22 <0.9.0;\n\ncontract Ballot {\n    struct Voter {\n        uint256 voterId;\n        bool voted;\n    }\n\n    struct Candidate {\n        uint256 candidateId;\n        string name;\n        uint256 voteTally;\n    }\n\n    mapping(address => bool) public voters;\n    mapping(uint256 => Candidate) public candidates;\n    mapping(address => bool) public excludedAddresses;\n\n    uint256 public candidatesCount;\n\n    uint256 public length;\n\n    string public proposalName;\n\n    address public chairperson;\n\n    constructor(\n        string[] memory _candidateNames,\n        string memory _proposalName,\n        address[] memory _candidateAddresses\n    ) {\n        chairperson = msg.sender;\n        proposalName = _proposalName;\n        length = _candidateNames.length;\n\n        for (uint256 i = 0; i < _candidateNames.length; i++) {\n            addCandidate(_candidateNames[i]);\n        }\n\n        for (uint256 i = 0; i < _candidateAddresses.length; i++) {\n            addCandidateAddress(_candidateAddresses[i]);\n        }\n    }\n\n    function addCandidateAddress(address _address) public {\n        voters[_address] = true;\n    }\n\n    function addCandidate(string memory _name) public {\n        candidates[candidatesCount] = Candidate(candidatesCount, _name, 0);\n        candidatesCount++;\n    }\n\n    function getCandidates()\n        external\n        view\n        returns (string[] memory, uint256[] memory)\n    {\n        string[] memory names = new string[](candidatesCount);\n        uint256[] memory voteCounts = new uint256[](candidatesCount);\n        for (uint256 i = 0; i < candidatesCount; i++) {\n            names[i] = candidates[i].name;\n            voteCounts[i] = candidates[i].voteTally;\n        }\n        return (names, voteCounts);\n    }\n\n    function vote(uint256 _candidateId) public {\n        voters[msg.sender] = true;\n        candidates[_candidateId].voteTally++;\n    }\n\n    function getCandidatesCount() public view returns (uint256) {\n        return candidatesCount;\n    }\n\n    function getLength() public view returns (uint256) {\n        return length;\n    }\n\n    function getProposalName() public view returns (string memory) {\n        return proposalName;\n    }\n\n    function readVoteTally(uint256 _candidateId)\n        external\n        view\n        returns (uint256)\n    {\n        return candidates[_candidateId].voteTally;\n    }\n}\n",
  "sourcePath": "/Users/josiahmayanja/fyp_dapp/contracts/Ballot.sol",
  "compiler": {
    "name": "solc",
    "version": "0.8.10+commit.fc410830.Emscripten.clang"
  },
  "schemaVersion": "3.4.4",
  "updatedAt": "2022-02-02T23:09:18.580Z",
  "devdoc": {
    "kind": "dev",
    "methods": {},
    "version": 1
  },
  "userdoc": {
    "kind": "user",
    "methods": {},
    "version": 1
  }
}